:100000000C9434000C9446000C9446000C9446006A
:100010000C9446000C9446000C9446000C94460048
:100020000C9446000C9446000C9446000C94460038
:100030000C9446000C9446000C9446000C94460028
:100040000C9446000C9446000C94CB000C94460093
:100050000C9446000C9446000C9446000C94460008
:100060000C9446000C94460011241FBECFEFD8E03C
:10007000DEBFCDBF21E0A0E0B1E001C01D92A13004
:10008000B207E1F70E94B3000C94FB000C9400004F
:100090008AB18E7F8AB98AB182608AB91092C00013
:1000A000E1ECF0E01082808188698083E2ECF0E08E
:1000B000108286E0808387E690E09093C50080936D
:1000C000C40008959091C00095FFFCCF8093C600B6
:1000D00008958FE384B983E087B90E9448000895AA
:1000E0008AE00E94620083E40E94620081E40E9430
:1000F000620082E50E94620081E40E94620083E463
:100100000E94620084E50E94620085E40E94620011
:1001100082E50E94620080E20E94620081E40E9407
:10012000620080E20E9462008DE40E9462008FE41F
:100130000E94620083E50E94620084E50E946200E2
:1001400082E50E94620081E40E94620082E50E94D2
:1001500062008AE00E9462008AE00E9462008DE0F4
:100160000E94620008950E94690078940E947000C5
:10017000FFCF85B1909100019F73807C892B85B959
:1001800088B19091000192959695969593708C7F89
:10019000892B88B908951F920F920FB60F921124E0
:1001A0002F933F934F935F936F937F938F939F937F
:1001B000AF93BF93EF93FF939091C600909300018C
:1001C0008091C00085FFFCCF9093C6000E94B900CB
:1001D0000E947000FF91EF91BF91AF919F918F911D
:1001E0007F916F915F914F913F912F910F900FBE33
:0A01F0000F901F901895F894FFCFB0
:00000001FF
