:100000000C9434000C9451000C9451000C94510049
:100010000C9451000C9451000C9451000C9451001C
:100020000C9451000C9451000C9451000C9451000C
:100030000C9451000C9451000C9451000C945100FC
:100040000C9451000C9451000C9493010C945100A9
:100050000C9451000C9473020C9451000C945100B8
:100060000C9451000C94510011241FBECFEFD8E026
:10007000DEBFCDBF11E0A0E0B1E0E0E4FBE002C0F4
:1000800005900D92AC36B107D9F721E0ACE6B1E0AE
:1000900001C01D92A537B207E1F70E9472010C94CE
:1000A0009E050C940000ECE7F0E0108290819064D3
:1000B000908390819F779083EAE7F0E010829081AF
:1000C00090689083908198609083813031F4ECE760
:1000D000F0E080818062808305C0ECE7F0E0808101
:1000E0008F7D8083403141F140F4443099F04830B5
:1000F000D1F0423009F041C007C0403479F14038B6
:10010000B1F14032D1F521C0EAE7F0E08081887F8B
:10011000808338C0EAE7F0E080818260808380815C
:100120008A7F80832FC0EAE7F0E08081836080834C
:1001300080818B7F808326C0EAE7F0E08081846045
:10014000808380818C7F80831DC0EAE7F0E080811E
:100150008560808380818D7F808314C0EAE7F0E032
:1001600080818660808380818E7F80830BC0EAE7F8
:10017000F0E080818760808305C0EAE7F0E080815D
:10018000887F80836630B8F56230C1F028F466233A
:1001900049F0613069F02AC06430E1F0A8F06530C0
:1001A000F9F024C0EEE7F0E080818160808308955B
:1001B000EEE7F0E08081826080830895EEE7F0E072
:1001C0008081846080830895EEE7F0E0808188601C
:1001D00080830895EEE7F0E0808180618083089558
:1001E000EEE7F0E08081806280830895EEE7F0E042
:1001F00080818E7F80830895ECE7F0E09081907F8E
:10020000892B8083EAE7F0E080818064808380919D
:100210007A0086FDFCCF8091780090917900089556
:100220008AB18E7F8AB98AB182608AB91092C00081
:10023000E1ECF0E01082808188698083E2ECF0E0FC
:10024000108286E0808387E690E09093C5008093DB
:10025000C40008959091C00095FFFCCF8093C60024
:100260000895AC0120E007C09091C00095FFFCCF3D
:100270003093C6002F5FFA01E20FF11D308131117A
:10028000F3CF08958FE384B983E087B90E9410010A
:1002900008958AE00E942A0180E091E00E943101E5
:1002A0008AE00E942A018DE00E942A0108958AE0D6
:1002B0000E942A018DE00E942A0183E191E00E94C0
:1002C00031018AE00E942A018DE00E942A018FE21A
:1002D00091E00E9431018AE00E942A018DE00E9493
:1002E0002A0108950E94420140E866E081E00E94F0
:1002F000530078940E94570186E090E00E94FC0031
:10030000FBCF85B1909173019F73807C892B85B958
:1003100088B19091730192959695969593708C7F84
:10032000892B88B908951F920F920FB60F9211244E
:100330000F931F932F933F934F935F936F937F93ED
:100340008F939F93AF93BF93EF93FF93CF93DF93DD
:10035000CDB7DEB76E97DEBFCDBF9091C60090934C
:1003600073018091C00085FFFCCF9093C6008091FF
:100370006C01882369F00E94810110926C018AE06F
:100380000E942A018DE00E942A010E94570190C01C
:1003900080917301813309F069C08AE00E942A01CB
:1003A0008DE00E942A0186E090E00E94FC0080918E
:1003B000740185B9809174018295869586958370C4
:1003C00088B93091740129E2329F212D11242295A0
:1003D0002F7020937201832F90E044E6249F8019B0
:1003E000910911246AE070E00E948C02609371010F
:1003F000962F990F892F880F880F890F94E6299FD0
:10040000800D1124381B30937001205D20936F0103
:10041000605D60936E01305D30936D018AE00E94F3
:100420002A018DE00E942A0180916D011F928F9315
:1004300080916E011F928F9380916F011F928F9315
:100440008FE391E09F938F938E010F5F1F4F1F9358
:100450000F930E94B402C8010E9431010E9457010B
:100460000FB6F894DEBF0FBECDBF22C0823371F449
:1004700010926C018AE00E942A018DE00E942A01FC
:100480000E94490181E080936C0112C08AE00E94C1
:100490002A018DE00E942A018DE591E00E94310140
:1004A0000E9457018AE00E942A018DE00E942A01E1
:1004B0006E960FB6F894DEBF0FBECDBFDF91CF9121
:1004C000FF91EF91BF91AF919F918F917F916F912C
:1004D0005F914F913F912F911F910F910F900FBE00
:1004E0000F901F9018951F920F920FB60F92112424
:1004F0008F93EF93FF938091790080937401EAE7E3
:10050000F0E0808180618083FF91EF918F910F9067
:100510000FBE0F901F90189597FB072E16F40094AE
:1005200007D077FD09D00E94A00207FC05D03EF459
:10053000909581959F4F0895709561957F4F08958F
:10054000AA1BBB1B51E107C0AA1FBB1FA617B707F9
:1005500010F0A61BB70B881F991F5A95A9F7809515
:100560009095BC01CD010895AEE0B0E0EAEBF2E079
:100570000C9475050D891E8986E08C831A83098386
:100580008FEF9FE79E838D83AE01475E5F4F6F893C
:10059000788DCE0101960E94D602EF81F885E00F9A
:1005A000F11F10822E96E4E00C949105ABE0B0E0D0
:1005B000ECEDF2E00C9467056C017B018A01FC0113
:1005C00017821682838181FFCCC1CE0101963C0146
:1005D000F6019381F70193FD859193FF81917F014E
:1005E000882309F4BAC1853239F493FD859193FFCC
:1005F00081917F01853229F4B60190E00E94CD04FB
:10060000E7CF912C212C312CFFE1F315D8F08B3260
:1006100079F038F4803279F08332A1F4232D20610F
:100620001DC08D3261F0803369F4232D216016C026
:10063000832D8260382EE32DE4603E2E2AC0F32DF8
:10064000F8601DC037FC2DC020ED280F2A3040F087
:100650008E32B9F436FC81C1232D2064322E19C0AC
:1006600036FE06C08AE0989E200D1124922E11C0FD
:10067000EAE02E9E200D1124222EF32DF0623F2E53
:1006800008C08C3621F4832D8068382E02C088364D
:1006900041F4F70193FD859193FF81917F018111D1
:1006A000B3CF982F9F7D9554933028F40C5F1F4F44
:1006B0009FE399830DC0833631F0833771F0833522
:1006C00009F059C021C0F801808189830E5F1F4F56
:1006D00088248394912C530113C02801F2E04F0E1B
:1006E000511CF801A080B18036FE03C0692D70E076
:1006F00002C06FEF7FEFC5010E94C2044C0182016E
:10070000F32DFF773F2E16C0280122E0420E511C28
:10071000F801A080B18036FE03C0692D70E002C0F0
:100720006FEF7FEFC5010E94B7044C01F32DF06815
:100730003F2E820133FC1BC0822D90E08816990663
:10074000B0F4B60180E290E00E94CD042A94F4CF88
:10075000F50137FC859137FE81915F01B60190E08C
:100760000E94CD0421102A9421E0821A910881145C
:10077000910471F7E8C0843611F0893641F5F8012B
:1007800037FE07C060817181828193810C5F1F4FAA
:1007900008C060817181072E000C880B990B0E5FD9
:1007A0001F4FF32DFF763F2E97FF09C09095809540
:1007B000709561957F4F8F4F9F4FF0683F2E2AE0D5
:1007C00030E0A3010E940905882E861845C08537B0
:1007D00031F4232D2F7EB22E2AE030E025C0932D58
:1007E000997FB92E8F36C1F018F4883579F0B5C0ED
:1007F000803719F0883721F0B0C0E92FE061BE2EB4
:10080000B4FE0DC0FB2DF460BF2E09C034FE0AC03B
:10081000292F2660B22E06C028E030E005C020E176
:1008200030E002C020E132E0F801B7FE07C060818D
:100830007181828193810C5F1F4F06C0608171813D
:1008400080E090E00E5F1F4FA3010E940905882EF3
:100850008618FB2DFF773F2E36FE0DC0232D2E7FF1
:10086000A22E891458F434FE0BC032FC09C0832D2B
:100870008E7EA82E05C0B82CA32C03C0B82C01C0B6
:10088000B92CA4FE0FC0FE01E80DF11D808180335C
:1008900021F49A2D997EA92E09C0A2FE06C0B39418
:1008A000B39404C08A2D867809F0B394A3FC11C0D8
:1008B000A0FE06C0B21488F4280C922C9B180EC01F
:1008C000B21460F4B60180E290E00E94CD04B394CB
:1008D000F7CFB21418F42B1802C0982C212CA4FEC8
:1008E00010C0B60180E390E00E94CD04A2FE17C0C4
:1008F000A1FC03C088E790E002C088E590E0B60163
:100900000CC08A2D867859F0A1FE02C08BE201C08E
:1009100080E2A7FC8DE2B60190E00E94CD0489142C
:1009200038F4B60180E390E00E94CD049A94F7CFAA
:100930008A94F301E80DF11D8081B60190E00E94D8
:10094000CD048110F5CF222009F442CEB60180E219
:1009500090E00E94CD042A94F6CFF601868197811B
:1009600002C08FEF9FEF2B96E2E10C948305FC0110
:100970000590615070400110D8F7809590958E0FCA
:100980009F1F0895FC016150704001900110D8F73D
:10099000809590958E0F9F1F08950F931F93CF936F
:1009A000DF93FB01238121FD03C08FEF9FEF2CC05C
:1009B00022FF16C046815781248135814217530793
:1009C00044F4A081B1819D012F5F3F4F318320838B
:1009D0008C93268137812F5F3F4F3783268314C046
:1009E0008B01EC01FB010084F185E02D0995892B39
:1009F000E1F6D80116968D919C911797019617965E
:100A00009C938E931697CE01DF91CF911F910F91FA
:100A10000895FA01AA27283051F1203181F1E89494
:100A20006F936E7F6E5F7F4F8F4F9F4FAF4FB1E0E1
:100A30003ED0B4E03CD0670F781F891F9A1FA11DDC
:100A4000680F791F8A1F911DA11D6A0F711D811DDD
:100A5000911DA11D20D009F468943F912AE0269FA2
:100A600011243019305D3193DEF6CF010895462F01
:100A70004770405D4193B3E00FD0C9F7F6CF462FE2
:100A80004F70405D4A3318F0495D31FD405241934B
:100A900002D0A9F7EACFB4E0A69597958795779508
:100AA0006795BA95C9F700976105710508959B018F
:100AB000AC010A2E06945795479537952795BA9518
:100AC000C9F7620F731F841F951FA01D08952F92F1
:100AD0003F924F925F926F927F928F929F92AF92CE
:100AE000BF92CF92DF92EF92FF920F931F93CF931B
:100AF000DF93CDB7DEB7CA1BDB0B0FB6F894DEBFB2
:100B00000FBECDBF09942A88398848885F846E84D7
:100B10007D848C849B84AA84B984C884DF80EE8021
:100B2000FD800C811B81AA81B981CE0FD11D0FB62A
:100B3000F894DEBF0FBECDBFED010895F894FFCF4E
:100B400043617261637465722061206D6F737472AA
:100B5000617200312E204C6565722076616C6F7277
:100B600020706F74656E63696F6D6574726F0032AB
:100B70002E20456E766961722041534349490056E3
:100B8000616C6F7220506F74656E63696F6D657410
:100B9000726F3A202563256325630D0A00496E7044
:0C0BA000757420696E76616C69646F00EA
:00000001FF
