S016000050726F796563746F324D6963726F2E737265638D
S11300000C9434000C9451000C9451000C94510045
S11300100C9458040C9451000C9451000C9451000D
S11300200C9451000C9451000C9451000C94510008
S11300300C9451000C9451000C9451000C945100F8
S11300400C9451000C9451000C9462060C945100D1
S11300500C9451000C943F040C9451000C945100E6
S11300600C9451000C94510011241FBECFEFD8E022
S1130070DEBFCDBF11E0A0E0B1E0EEE5F5E102C0E6
S113008005900D92A835B107D9F721E0A8E5B1E0B4
S113009001C01D92AF36B207E1F70E9466030C94CB
S11300A0AD0A0C940000ECE7F0E0108290819064BB
S11300B0908390819F779083EAE7F0E010829081AB
S11300C090689083908198609083813031F4ECE75C
S11300D0F0E080818062808305C0ECE7F0E08081FD
S11300E08F7D8083403141F140F4443099F04830B1
S11300F0D1F0423009F041C007C0403479F14038B2
S1130100B1F14032D1F521C0EAE7F0E08081887F87
S1130110808338C0EAE7F0E0808182608083808158
S11301208A7F80832FC0EAE7F0E080818360808348
S113013080818B7F808326C0EAE7F0E08081846041
S1130140808380818C7F80831DC0EAE7F0E080811A
S11301508560808380818D7F808314C0EAE7F0E02E
S113016080818660808380818E7F80830BC0EAE7F4
S1130170F0E080818760808305C0EAE7F0E0808159
S1130180887F80836630B8F56230C1F028F4662336
S113019049F0613069F02AC06430E1F0A8F06530BC
S11301A0F9F024C0EEE7F0E0808181608083089557
S11301B0EEE7F0E08081826080830895EEE7F0E06E
S11301C08081846080830895EEE7F0E08081886018
S11301D080830895EEE7F0E0808180618083089554
S11301E0EEE7F0E08081806280830895EEE7F0E03E
S11301F080818E7F80830895ECE7F0E09081907F8A
S1130200892B8083EAE7F0E0808180648083809199
S11302107A0086FDFCCF8091780090917900089552
S11302209AB190649AB914BC813021F484B5806C7D
S113023084BD03C084B5806884BD662319F0613031
S113024029F008C084B5836084BD089584B58360B3
S113025084BD089584B5836084BD089515BC82303F
S113026099F028F4882341F0813051F019C083308B
S113027079F0843089F014C085B5816085BD13C0E0
S113028085B5826085BD0FC085B5836085BD0BC013
S113029085B5846085BD07C085B5856085BD03C00F
S11302A085B5816085BD662319F0613029F008C0E9
S11302B085B5877F85BD089585B5886085BD08951A
S11302C085B5877F85BD089594B1926094B994B142
S11302D0946094B910928000813049F4E0E8F0E031
S11302E08081806C808380818063808308C0E0E8A3
S11302F0F0E08081806880838081806280836230C6
S1130300B9F028F4662341F0613061F023C0633012
S1130310A9F06430C9F01EC0E0E8F0E0808181609B
S113032080830895E0E8F0E080818260808308950E
S1130330E0E8F0E08081836080830895E0E8F0E005
S11303408081816080830895E0E8F0E080818360AB
S113035080830895E0E8F0E08081816080830895DF
S1130360109281008230B9F028F4882341F0813062
S113037061F023C08330A9F08430C9F01EC0E1E8E5
S1130380F0E08081816080831DC0E1E8F0E080813D
S11303908260808317C0E1E8F0E08081836080831D
S11303A011C0E1E8F0E08081846080830BC0E1E863
S11303B0F0E080818560808305C0E1E8F0E0808121
S11303C0816080836230B9F028F4662341F06130A3
S11303D061F023C06330A9F06430C9F01EC0E1E8C5
S11303E0F0E08081886080830895E1E8F0E0808116
S11303F0886080830895E1E8F0E0808188608083EC
S11304000895E1E8F0E08081886180830895E1E85F
S1130410F0E08081886180830895E1E8F0E08081E4
S11304208860808308959AB198609AB994B198606D
S113043094B91092B000813049F4E0EBF0E080818F
S1130440806C808380818063808308C0E0EBF0E06F
S1130450808180688083808180628083662319F034
S1130460613039F00CC0E0EBF0E080818360808380
S11304700895E0EBF0E08081836080830895E0EBF1
S1130480F0E080818360808308951092B10082300F
S1130490B9F028F4882341F0813061F023C083301F
S11304A0A9F08430C9F01EC0E1EBF0E080818160E6
S11304B080831DC0E1EBF0E080818260808317C0FF
S11304C0E1EBF0E080818460808311C0E1EBF0E037
S11304D08081866080830BC0E1EBF0E080818760DF
S11304E0808305C0E1EBF0E0808181608083662336
S11304F019F0613039F00CC0E1EBF0E08081877FC6
S113050080830895E1EBF0E0808188608083089522
S1130510E1EBF0E08081877F8083089590E0909301
S1130520890080938800089590E090938B008093D5
S11305308A0008958093B30008958093B4000895C9
S113054087BD08958AB18E7F8AB98AB182608AB9DB
S11305501092C000E1ECF0E0108280818869808311
S1130560E2ECF0E0108286E0808387E690E09093EE
S1130570C5008093C40008959091C00095FFFCCFFE
S11305808093C6000895AC0120E007C09091C0009C
S113059095FFFCCF3093C6002F5FFA01E20FF11DE7
S11305A030813111F3CF089587B1887F87B980EB0B
S11305B08AB981E084B9E8E6F0E0808182608083D2
S11305C0ECE6F0E08081876080830895CF9387E034
S11305D090E00E94FC0080916B0180936A01CBEA59
S11305E08C9F812D1124869586950E949A022FEF67
S11305F080E792E0215080409040E1F700C0000085
S113060086E090E00E94FC0080916B018093690178
S11306108C9F812D1124869586950E9494022FEF3C
S113062080E792E0215080409040E1F700C0000054
S113063085E090E00E94FC0080916B01809368014A
S11306408C9F812D1124869586950E948E022FEF12
S113065080E792E0215080409040E1F700C0000024
S113066084E090E00E94FC0090916B0190936701FC
S113067085E2989F812D1124981B9695890F869564
S113068086950E94A0022FEF80E792E021508040DF
S11306909040E1F700C0000083E090E00E94FC007D
S11306A080916B01809366018C9F812D1124869526
S11306B086950E949D022FEF80E792E021508040B2
S11306C09040E1F700C00000CF910895CF93DF93ED
S11306D0CDB7DEB76E970FB6F894DEBF0FBECDBFB1
S11306E00E94D4020E94A20260E080E00E941001F5
S11306F060E084E00E942E0160E080E00E946401DA
S113070060E084E00E94B00160E080E00E94130297
S113071060E084E00E94450240E866E081E00E94D7
S113072053002FEF41EE84E0215040408040E1F738
S113073000C0000040E867E081E00E9453009FEFA2
S113074021EE44E0915020404040E1F700C0000019
S113075040E865E081E00E9453008FEF91EE24E0D1
S1130760815090402040E1F700C0000040E864E080
S113077081E00E9453004FEF81EE94E041508040AD
S11307809040E1F700C0000040E863E081E00E948F
S113079053002FEF41EE84E0215040408040E1F7C8
S11307A000C00000789480916D01811159C080E0EF
S11307B091E00E94C3020E94E60230916A0129E29C
S11307C0329F212D112422952F7020936501832FB0
S11307D090E044E6249F8019910911246AE070E0B6
S11307E00E945F0760936401962F990F892F880FE9
S11307F0880F890F94E6299F800D1124381B3093AC
S11308006301205D20936201605D60936101305D4E
S1130810309360018AE00E94BC028DE00E94BC0219
S1130820809160011F928F93809161011F928F9339
S1130830809162011F928F9383E191E09F938F9344
S11308408E010F5F1F4F1F930F930E94AD07C801C6
S11308500E94C3020FB6F894DEBF0FBECDBFA3CF74
S1130860813029F481E391E00E94C3029CCF82305D
S113087009F099CF84E491E00E94C30294CF1F92BF
S11308800F920FB60F9211248F93EF93FF938091E1
S1130890790080936B01EAE7F0E0808180618083D6
S11308A0FF91EF918F910F900FBE0F901F901895AD
S11308B01F920F920FB60F9211242F933F934F93D1
S11308C05F936F937F938F939F93AF93BF93CF93D4
S11308D0EF93FF9386B1813009F033C180916C01AD
S11308E08F5F80936C01843010F010926C012BB1F7
S11308F090916C01937030E1939FC0011124922F69
S11309009F7C892B8BB980916D01823009F0C8C11D
S113091080916C01813009F44BC038F0823009F4C5
S11309208AC0833009F4CAC0BBC183E190E00E944D
S1130930600A80936A01CBEA8C9F812D11248695ED
S113094086950E949A0282E190E00E94600A809358
S113095069018C9F812D1124869586950E949402AD
S113096081E190E00E94600A809368018C9F812D50
S11309701124869586950E948E0280E190E00E9463
S1130980600A809367018C9F812D1124869586953A
S11309900E94A0028FE090E00E94600A80936601AA
S11309A08C9F812D1124869586950E949D0278C185
S11309B08EE090E00E94600A80936A01CBEA8C9FEB
S11309C0812D1124869586950E949A028DE090E0EF
S11309D00E94600A809369018C9F812D1124869561
S11309E086950E9494028CE090E00E94600A8093B5
S11309F068018C9F812D1124869586950E948E0214
S1130A008BE090E00E94600A809367018C9F812DA7
S1130A101124869586950E94A0028AE090E00E94A7
S1130A20600A809366018C9F812D1124869586959A
S1130A300E949D0235C189E090E00E94600A809383
S1130A406A01CBEA8C9F812D1124869586950E949C
S1130A509A0288E090E00E94600A809369018C9F6A
S1130A60812D1124869586950E94940287E090E05A
S1130A700E94600A809368018C9F812D11248695C1
S1130A8086950E948E0286E090E00E94600A809320
S1130A9067018C9F812D1124869586950E94A00262
S1130AA085E090E00E94600A809366018C9F812D0E
S1130AB01124869586950E949D02F2C084E090E000
S1130AC00E94600A80936A01CBEA8C9F812D1124D5
S1130AD0869586950E949A0283E090E00E94600ABF
S1130AE0809369018C9F812D1124869586950E949F
S1130AF0940282E090E00E94600A809368018C9FD7
S1130B00812D1124869586950E948E0281E090E0C5
S1130B100E94600A809367018C9F812D1124869521
S1130B2086950E94A00280E090E00E94600A809373
S1130B3066018C9F812D1124869586950E949D02C5
S1130B40AFC086B1823009F580916D018F5F8093CB
S1130B506D01833010F010926D012BB190916D01F5
S1130B6030E8939FC0011124922F9F77892B8BB972
S1130B7025B190916D019270892F90E0959587959C
S1130B80922F9E7F892B85B98BC086B1843009F062
S1130B9087C080916C01813039F138F0823009F4DA
S1130BA042C0833009F45EC07BC060916A0183E176
S1130BB090E00E94680A6091690182E190E00E94DD
S1130BC0680A6091680181E190E00E94680A60917E
S1130BD0670180E190E00E94680A609166018FE0FD
S1130BE090E00E94680A5CC060916A018EE090E027
S1130BF00E94680A609169018DE090E00E94680A91
S1130C00609168018CE090E00E94680A609167013D
S1130C108BE090E00E94680A609166018AE090E0AF
S1130C200E94680A3DC060916A0189E090E00E94D8
S1130C30680A6091690188E090E00E94680A609106
S1130C40680187E090E00E94680A6091670186E08D
S1130C5090E00E94680A6091660185E090E00E943D
S1130C60680A1EC060916A0184E090E00E94680AEC
S1130C706091690183E090E00E94680A60916801D4
S1130C8082E090E00E94680A6091670181E090E050
S1130C900E94680A6091660180E090E00E94680A00
S1130CA0FF91EF91CF91BF91AF919F918F917F91E0
S1130CB06F915F914F913F912F910F900FBE0F90C5
S1130CC01F9018951F920F920FB60F9211242F9315
S1130CD03F934F935F936F937F938F939F93AF93C0
S1130CE0BF93EF93FF939091C60090936E01809110
S1130CF0C00085FFFCCF9093C60080916D018130C8
S1130D0009F0CCC080915D01811151C080916E01C8
S1130D10803331F410925F0181E080935D013BC028
S1130D20813631F481E080935F0110925D0133C01C
S1130D30813319F410925E012EC0823321F481E0D4
S1130D4080935E0128C0833321F482E080935E01A6
S1130D5022C0843321F483E080935E011CC0853378
S1130D6021F484E080935E0116C0863319F4109256
S1130D706C0111C0873321F481E080936C010BC0B6
S1130D80883321F482E080936C0105C0893319F41F
S1130D9083E080936C012BB190916C01937030E1EE
S1130DA0939FC0011124922F9F7C892B8BB9809132
S1130DB05F01811173C080915D01813009F06EC0C3
S1130DC0E0915B018E0F80935B01F0E0E85AFE4FE7
S1130DD090916E019083833041F0823009F05EC0BF
S1130DE090915801913309F059C0E82FF0E0E85A86
S1130DF0FE4F8AE0808388E591E00E948707282FD0
S1130E00392F2B503109253F310508F045C0909109
S1130E105E01923009F128F4992341F0913089F070
S1130E203BC0933021F1943069F136C080936A015C
S1130E309BEA899F812D1124869586950E949A02AA
S1130E402BC0809369019BEA899F812D112486958B
S1130E5086950E94940220C0809368019BEA899F32
S1130E60812D1124869586950E948E0215C080934B
S1130E7067019BEA899F812D1124869586950E949E
S1130E80A0020AC0809366019BEA899F812D1124E8
S1130E90869586950E949D0210925C01FF91EF91C8
S1130EA0BF91AF919F918F917F916F915F914F917E
S1130EB03F912F910F900FBE0F901F90189597FBA5
S1130EC0072E16F4009407D077FD09D00E9473070B
S1130ED007FC05D03EF4909581959F4F0895709539
S1130EE061957F4F0895AA1BBB1B51E107C0AA1F40
S1130EF0BB1FA617B70710F0A61BB70B881F991FB7
S1130F005A95A9F780959095BC01CD010895FC01EF
S1130F1088279927E89421912032E9F3293010F0A9
S1130F202E30C8F32B3241F02D3239F4689404C0CA
S1130F300E94A507820F911D219120532A30C0F3EE
S1130F401EF4909581959F4F08957AE0979F902D78
S1130F50879F802D910D11240895AEE0B0E0E3EB5E
S1130F60F7E00C94840A0D891E8986E08C831A8329
S1130F7009838FEF9FE79E838D83AE01475E5F4FAA
S1130F806F89788DCE0101960E94CF07EF81F88595
S1130F90E00FF11F10822E96E4E00C94A00AABE05F
S1130FA0B0E0E5EDF7E00C94760A6C017B018A0170
S1130FB0FC0117821682838181FFCCC1CE01019688
S1130FC03C01F6019381F70193FD859193FF819193
S1130FD07F01882309F4BAC1853239F493FD8591E0
S1130FE093FF81917F01853229F4B60190E00E943C
S1130FF0C609E7CF912C212C312CFFE1F315D8F051
S11310008B3279F038F4803279F08332A1F4232DD5
S113101020611DC08D3261F0803369F4232D21607D
S113102016C0832D8260382EE32DE4603E2E2AC044
S1131030F32DF8601DC037FC2DC020ED280F2A3099
S113104040F08E32B9F436FC81C1232D2064322E57
S113105019C036FE06C08AE0989E200D1124922EF7
S113106011C0EAE02E9E200D1124222EF32DF062F1
S11310703F2E08C08C3621F4832D8068382E02C0A0
S1131080883641F4F70193FD859193FF81917F01A7
S11310908111B3CF982F9F7D9554933028F40C5F22
S11310A01F4F9FE399830DC0833631F0833771F06E
S11310B0833509F059C021C0F801808189830E5F0E
S11310C01F4F88248394912C530113C02801F2E00C
S11310D04F0E511CF801A080B18036FE03C0692D6B
S11310E070E002C06FEF7FEFC5010E94BB094C01A5
S11310F08201F32DFF773F2E16C0280122E0420E15
S1131100511CF801A080B18036FE03C0692D70E047
S113111002C06FEF7FEFC5010E94B0094C01F32DAF
S1131120F0683F2E820133FC1BC0822D90E08816AC
S11311309906B0F4B60180E290E00E94C6092A94B0
S1131140F4CFF50137FC859137FE81915F01B6013B
S113115090E00E94C60921102A9421E0821A910885
S11311608114910471F7E8C0843611F0893641F591
S1131170F80137FE07C060817181828193810C5F21
S11311801F4F08C060817181072E000C880B990BDA
S11311900E5F1F4FF32DFF763F2E97FF09C09095EA
S11311A08095709561957F4F8F4F9F4FF0683F2ECC
S11311B02AE030E0A3010E94020A882E861845C066
S11311C0853731F4232D2F7EB22E2AE030E025C05E
S11311D0932D997FB92E8F36C1F018F4883579F0A4
S11311E0B5C0803719F0883721F0B0C0E92FE0612D
S11311F0BE2EB4FE0DC0FB2DF460BF2E09C034FE1C
S11312000AC0292F2660B22E06C028E030E005C0AF
S113121020E130E002C020E132E0F801B7FE07C06F
S113122060817181828193810C5F1F4F06C0608150
S1131230718180E090E00E5F1F4FA3010E94020ABB
S1131240882E8618FB2DFF773F2E36FE0DC0232DEA
S11312502E7FA22E891458F434FE0BC032FC09C030
S1131260832D8E7EA82E05C0B82CA32C03C0B82CC9
S113127001C0B92CA4FE0FC0FE01E80DF11D808150
S1131280803321F49A2D997EA92E09C0A2FE06C0AE
S1131290B394B39404C08A2D867809F0B394A3FC64
S11312A011C0A0FE06C0B21488F4280C922C9B181E
S11312B00EC0B21460F4B60180E290E00E94C60948
S11312C0B394F7CFB21418F42B1802C0982C212C25
S11312D0A4FE10C0B60180E390E00E94C609A2FEFD
S11312E017C0A1FC03C088E790E002C088E590E045
S11312F0B6010CC08A2D867859F0A1FE02C08BE29B
S113130001C080E2A7FC8DE2B60190E00E94C6090C
S1131310891438F4B60180E390E00E94C6099A94D7
S1131320F7CF8A94F301E80DF11D8081B60190E0B6
S11313300E94C6098110F5CF222009F442CEB601DD
S113134080E290E00E94C6092A94F6CFF6018681D5
S1131350978102C08FEF9FEF2B96E2E10C94920AE3
S1131360FC010590615070400110D8F7809590956C
S11313708E0F9F1F0895FC01615070400190011071
S1131380D8F7809590958E0F9F1F08950F931F9304
S1131390CF93DF93FB01238121FD03C08FEF9FEFE8
S11313A02CC022FF16C04681578124813581421703
S11313B0530744F4A081B1819D012F5F3F4F3183D6
S11313C020838C93268137812F5F3F4F3783268379
S11313D014C08B01EC01FB010084F185E02D09951B
S11313E0892BE1F6D80116968D919C911797019659
S11313F017969C938E931697CE01DF91CF911F91F0
S11314000F910895FA01AA27283051F1203181F172
S1131410E8946F936E7F6E5F7F4F8F4F9F4FAF4FF8
S1131420B1E03ED0B4E03CD0670F781F891F9A1F0B
S1131430A11D680F791F8A1F911DA11D6A0F711DBF
S1131440811D911DA11D20D009F468943F912AE0CB
S1131450269F11243019305D3193DEF6CF010895B3
S1131460462F4770405D4193B3E00FD0C9F7F6CFE4
S1131470462F4F70405D4A3318F0495D31FD4052AC
S1131480419302D0A9F7EACFB4E0A6959795879542
S113149077956795BA95C9F7009761057105089521
S11314A09B01AC010A2E06945795479537952795CD
S11314B0BA95C9F7620F731F841F951FA01D089565
S11314C0F999FECF92BD81BDF89A992780B5089508
S11314D0262FF999FECF1FBA92BD81BD20BD0FB64C
S11314E0F894FA9AF99A0FBE019608952F923F92B2
S11314F04F925F926F927F928F929F92AF92BF9220
S1131500CF92DF92EF92FF920F931F93CF93DF93CB
S1131510CDB7DEB7CA1BDB0B0FB6F894DEBF0FBE28
S1131520CDBF09942A88398848885F846E847D8475
S11315308C849B84AA84B984C884DF80EE80FD8077
S11315400C811B81AA81B981CE0FD11D0FB6F894ED
S1111550DEBF0FBECDBFED010895F894FFCFAE
S113155E457374617320656E206C61206D6F646FCA
S113156E20310056616C6F7220506F74656E636922
S113157E6F6D6574726F3A202563256325630D0ABA
S113158E00457374617320656E206C61206D6F6409
S113159E6F203200457374617320656E206C612078
S10B15AE6D6F646F203300002F
S9030000FC
