:100000000C9434000C9451000C9451000C94510049
:100010000C9451000C9451000C9451000C9451001C
:100020000C9451000C9451000C9451000C9451000C
:100030000C9451000C9451000C9451000C945100FC
:100040000C9451000C9451000C9451000C945100EC
:100050000C9451000C9481000C9451000C945100AC
:100060000C9451000C94510011241FBECFEFD8E026
:10007000DEBFCDBF11E0A0E0B1E0E2E4F2E002C0FB
:1000800005900D92A032B107D9F721E0A0E2B1E0CE
:1000900001C01D92A632B207E1F70E94EA000C945B
:1000A0001F010C94000087B18F6087B987B18F7CE6
:1000B00087B984B18F6084B98FEF8AB91BB8109269
:1000C000C10084B1806384B90895ECE7F0E0108248
:1000D00080818064808380818F778083808180624B
:1000E0008083AAE7B0E01C928C9180688C938C91FD
:1000F00088608C938C9187608C93808186608083EC
:1001000008951F920F920FB60F9211242F933F93D1
:100110008F939F93EF93FF938091790080932501B4
:10012000282F22952F7030E0309324012093230153
:100130008F7090E09093220180932101EAE7F0E034
:10014000808180618083FF91EF919F918F913F919A
:100150002F910F900FBE0F901F9018958FE39CE981
:100160000197F1F700C00000E0912101F091220118
:10017000EE0FFF1FE050FF4F80818BB985B18F7D5F
:1001800085B985B1806185B98FE39CE90197F1F765
:1001900000C00000E0912301F0912401EE0FFF1F49
:1001A000E050FF4F80818BB985B18F7E85B985B1D5
:1001B000806285B98FE19EE40197F1F700C00000ED
:1001C000809120018F7085B98091200182958F7078
:1001D00088B90895F8940E9453000E9465007894AD
:1001E000D1E0C1E0349908C0CC2331F080912001E6
:1001F000815080932001C0E03499C1E0359908C056
:10020000DD2331F0809120018F5F80932001D0E0C9
:100210003599D1E0EAE7F0E08081806480830E9434
:10022000AE009091200180912501981304C08BB1FC
:1002300080688BB9D7CF8BB18F778BB9D3CFF89438
:02024000FFCFEE
:100242003F0006005B004F0066006D007D00070066
:100252007F006F0077007C0039005E00790071003A
:00000001FF
