:020000020000FC
:040000000C9422003A
:040010000C948A00C2
:100040000C9464000FEF0DBF18E01EBF3F065B4F1E
:10005000666D7D077F6F00E80093610001E000930B
:10006000610000E007B90FEF08B90FEF04B90AB952
:1000700000E00093C1000BB903E000936C0002E0C4
:100080000093680001E000936E00789436D040E061
:10009000A0E050E060E07FE080E0ECE4F0E054912C
:1000A0005BB9ECE4F0E084918BB90FE0A02300E1B0
:1000B000A02BA5B95BB926D00FE0A02300E2A02BAE
:1000C000A5B98BB91FD0F1CFD2EBD6BD939594369D
:1000D00061F4992723952A3049F0ECE4F0E0E20F2F
:1000E0005491ECE4F0E0E60F8491189520E06395DC
:1000F000663009F0F2CF60E0FDCF05E005BDD2EB40
:10010000D6BD08950FEF14E60A95F1F70FEF1A9593
:10011000D9F70895C92F46B140FFA39541FFAA958D
:02012000189530
:00000001FF
