S00F00005072654C6162352E73726563AA
S11300000C9434000C9446000C9446000C94460066
S11300100C9446000C9446000C9446000C94460044
S11300200C9446000C9446000C9446000C94460034
S11300300C9446000C9446000C9446000C94460024
S11300400C9446000C9446000C9446000C94460014
S11300500C9446000C949D010C9446000C944600AC
S11300600C9446000C94460011241FBECFEFD8E038
S1130070DEBFCDBF21E0A0E0B1E001C01D92A230FF
S1130080B207E1F70E9478010C94B6010C940000C9
S1130090ECE7F0E0108290819064908390819F77E8
S11300A09083EAE7F0E010829081906890839081D9
S11300B098609083813031F4ECE7F0E080818062D5
S11300C0808305C0ECE7F0E080818F7D8083403140
S11300D041F140F4443099F04830D1F0423009F015
S11300E041C007C0403479F14038B1F14032D1F514
S11300F021C0EAE7F0E08081887F80830895EAE701
S1130100F0E080818260808380818A7F808308958B
S1130110EAE7F0E080818360808380818B7F808345
S11301200895EAE7F0E080818460808380818C7F99
S113013080830895EAE7F0E0808185608083808190
S11301408D7F80830895EAE7F0E080818660808374
S113015080818E7F80830895EAE7F0E08081876064
S113016080830895EAE7F0E08081887F80830895A2
S1130170ECE7F0E09081907F892B8083EAE7F0E060
S113018080818064808380917A0086FDFCCF809199
S1130190780090917900089594B1926094B9109286
S11301A08000813031F4E0E8F0E08081806C80836D
S11301B005C0E0E8F0E08081806880836230B9F0B7
S11301C028F4662341F0613061F023C06330A9F064
S11301D06430C9F01EC0E0E8F0E080818160808373
S11301E00895E0E8F0E08081826080830895E0E88B
S11301F0F0E08081836080830895E0E8F0E080810E
S1130200816080830895E0E8F0E0808183608083EA
S11302100895E0E8F0E08081816080830895109281
S113022081008230B9F028F4882341F0813061F0F4
S113023023C08330A9F08430C9F01EC0E1E8F0E0A7
S11302408081816080831DC0E1E8F0E0808182606C
S1130250808317C0E1E8F0E080818360808311C06F
S1130260E1E8F0E08081846080830BC0E1E8F0E0A5
S113027080818560808305C0E1E8F0E08081816051
S113028080836230B9F028F4662341F0613061F074
S113029023C06330A9F06430C9F01EC0E1E8F0E087
S11302A08081886080830895E1E8F0E0808188603F
S11302B080830895E1E8F0E0808188608083089578
S11302C0E1E8F0E08081886180830895E1E8F0E06E
S11302D08081886180830895E1E8F0E0808188600E
S11302E08083089590E09093890080938800089516
S11302F060E080E00E94CC0060E084E00E940F0196
S113030040E866E081E00E944800789486E090E04E
S11303100E94B80080910101809300019BEA899FAB
S1130320812D1124869586950E9472018FE39CE9A4
S11303300197F1F700C00000E9CF1F920F920FB6AA
S11303400F9211248F93EF93FF9380917900809300
S11303500101EAE7F0E0808180618083FF91EF9101
S11303608F910F900FBE0F901F901895F894FFCFA8
S9030000FC
